{
  "_format": "hh-sol-artifact-1",
  "contractName": "TokenTrove",
  "sourceName": "contracts/TokenTrove.sol",
  "abi": [
    {
      "inputs": [],
      "stateMutability": "nonpayable",
      "type": "constructor"
    },
    {
      "anonymous": false,
      "inputs": [
        {
          "indexed": true,
          "internalType": "address",
          "name": "owner",
          "type": "address"
        },
        {
          "indexed": true,
          "internalType": "address",
          "name": "approved",
          "type": "address"
        },
        {
          "indexed": true,
          "internalType": "uint256",
          "name": "tokenId",
          "type": "uint256"
        }
      ],
      "name": "Approval",
      "type": "event"
    },
    {
      "anonymous": false,
      "inputs": [
        {
          "indexed": true,
          "internalType": "address",
          "name": "owner",
          "type": "address"
        },
        {
          "indexed": true,
          "internalType": "address",
          "name": "operator",
          "type": "address"
        },
        {
          "indexed": false,
          "internalType": "bool",
          "name": "approved",
          "type": "bool"
        }
      ],
      "name": "ApprovalForAll",
      "type": "event"
    },
    {
      "anonymous": false,
      "inputs": [
        {
          "indexed": true,
          "internalType": "address",
          "name": "previousOwner",
          "type": "address"
        },
        {
          "indexed": true,
          "internalType": "address",
          "name": "newOwner",
          "type": "address"
        }
      ],
      "name": "OwnershipTransferred",
      "type": "event"
    },
    {
      "anonymous": false,
      "inputs": [
        {
          "indexed": true,
          "internalType": "address",
          "name": "from",
          "type": "address"
        },
        {
          "indexed": true,
          "internalType": "address",
          "name": "to",
          "type": "address"
        },
        {
          "indexed": true,
          "internalType": "uint256",
          "name": "tokenId",
          "type": "uint256"
        }
      ],
      "name": "Transfer",
      "type": "event"
    },
    {
      "inputs": [
        {
          "internalType": "address",
          "name": "user",
          "type": "address"
        }
      ],
      "name": "addToWhitelist",
      "outputs": [],
      "stateMutability": "nonpayable",
      "type": "function"
    },
    {
      "inputs": [
        {
          "internalType": "address",
          "name": "to",
          "type": "address"
        },
        {
          "internalType": "uint256",
          "name": "tokenId",
          "type": "uint256"
        }
      ],
      "name": "approve",
      "outputs": [],
      "stateMutability": "nonpayable",
      "type": "function"
    },
    {
      "inputs": [
        {
          "internalType": "address",
          "name": "owner",
          "type": "address"
        }
      ],
      "name": "balanceOf",
      "outputs": [
        {
          "internalType": "uint256",
          "name": "",
          "type": "uint256"
        }
      ],
      "stateMutability": "view",
      "type": "function"
    },
    {
      "inputs": [
        {
          "internalType": "uint256",
          "name": "tokenId",
          "type": "uint256"
        }
      ],
      "name": "burn",
      "outputs": [],
      "stateMutability": "nonpayable",
      "type": "function"
    },
    {
      "inputs": [
        {
          "internalType": "uint256",
          "name": "tokenId",
          "type": "uint256"
        }
      ],
      "name": "getApproved",
      "outputs": [
        {
          "internalType": "address",
          "name": "",
          "type": "address"
        }
      ],
      "stateMutability": "view",
      "type": "function"
    },
    {
      "inputs": [
        {
          "internalType": "address",
          "name": "owner",
          "type": "address"
        },
        {
          "internalType": "address",
          "name": "operator",
          "type": "address"
        }
      ],
      "name": "isApprovedForAll",
      "outputs": [
        {
          "internalType": "bool",
          "name": "",
          "type": "bool"
        }
      ],
      "stateMutability": "view",
      "type": "function"
    },
    {
      "inputs": [
        {
          "internalType": "address",
          "name": "recipient",
          "type": "address"
        },
        {
          "internalType": "string",
          "name": "uri",
          "type": "string"
        }
      ],
      "name": "mintNFT",
      "outputs": [
        {
          "internalType": "uint256",
          "name": "",
          "type": "uint256"
        }
      ],
      "stateMutability": "payable",
      "type": "function"
    },
    {
      "inputs": [],
      "name": "mintingFee",
      "outputs": [
        {
          "internalType": "uint256",
          "name": "",
          "type": "uint256"
        }
      ],
      "stateMutability": "view",
      "type": "function"
    },
    {
      "inputs": [],
      "name": "name",
      "outputs": [
        {
          "internalType": "string",
          "name": "",
          "type": "string"
        }
      ],
      "stateMutability": "view",
      "type": "function"
    },
    {
      "inputs": [],
      "name": "owner",
      "outputs": [
        {
          "internalType": "address",
          "name": "",
          "type": "address"
        }
      ],
      "stateMutability": "view",
      "type": "function"
    },
    {
      "inputs": [
        {
          "internalType": "uint256",
          "name": "tokenId",
          "type": "uint256"
        }
      ],
      "name": "ownerOf",
      "outputs": [
        {
          "internalType": "address",
          "name": "",
          "type": "address"
        }
      ],
      "stateMutability": "view",
      "type": "function"
    },
    {
      "inputs": [],
      "name": "renounceOwnership",
      "outputs": [],
      "stateMutability": "nonpayable",
      "type": "function"
    },
    {
      "inputs": [
        {
          "internalType": "uint256",
          "name": "",
          "type": "uint256"
        },
        {
          "internalType": "uint256",
          "name": "salePrice",
          "type": "uint256"
        }
      ],
      "name": "royaltyInfo",
      "outputs": [
        {
          "internalType": "address",
          "name": "",
          "type": "address"
        },
        {
          "internalType": "uint256",
          "name": "",
          "type": "uint256"
        }
      ],
      "stateMutability": "view",
      "type": "function"
    },
    {
      "inputs": [],
      "name": "royaltyPercentage",
      "outputs": [
        {
          "internalType": "uint256",
          "name": "",
          "type": "uint256"
        }
      ],
      "stateMutability": "view",
      "type": "function"
    },
    {
      "inputs": [],
      "name": "royaltyRecipient",
      "outputs": [
        {
          "internalType": "address",
          "name": "",
          "type": "address"
        }
      ],
      "stateMutability": "view",
      "type": "function"
    },
    {
      "inputs": [
        {
          "internalType": "address",
          "name": "from",
          "type": "address"
        },
        {
          "internalType": "address",
          "name": "to",
          "type": "address"
        },
        {
          "internalType": "uint256",
          "name": "tokenId",
          "type": "uint256"
        }
      ],
      "name": "safeTransferFrom",
      "outputs": [],
      "stateMutability": "nonpayable",
      "type": "function"
    },
    {
      "inputs": [
        {
          "internalType": "address",
          "name": "from",
          "type": "address"
        },
        {
          "internalType": "address",
          "name": "to",
          "type": "address"
        },
        {
          "internalType": "uint256",
          "name": "tokenId",
          "type": "uint256"
        },
        {
          "internalType": "bytes",
          "name": "data",
          "type": "bytes"
        }
      ],
      "name": "safeTransferFrom",
      "outputs": [],
      "stateMutability": "nonpayable",
      "type": "function"
    },
    {
      "inputs": [
        {
          "internalType": "address",
          "name": "operator",
          "type": "address"
        },
        {
          "internalType": "bool",
          "name": "approved",
          "type": "bool"
        }
      ],
      "name": "setApprovalForAll",
      "outputs": [],
      "stateMutability": "nonpayable",
      "type": "function"
    },
    {
      "inputs": [
        {
          "internalType": "address",
          "name": "recipient",
          "type": "address"
        },
        {
          "internalType": "uint256",
          "name": "percentage",
          "type": "uint256"
        }
      ],
      "name": "setRoyalties",
      "outputs": [],
      "stateMutability": "nonpayable",
      "type": "function"
    },
    {
      "inputs": [
        {
          "internalType": "bytes4",
          "name": "interfaceId",
          "type": "bytes4"
        }
      ],
      "name": "supportsInterface",
      "outputs": [
        {
          "internalType": "bool",
          "name": "",
          "type": "bool"
        }
      ],
      "stateMutability": "view",
      "type": "function"
    },
    {
      "inputs": [],
      "name": "symbol",
      "outputs": [
        {
          "internalType": "string",
          "name": "",
          "type": "string"
        }
      ],
      "stateMutability": "view",
      "type": "function"
    },
    {
      "inputs": [],
      "name": "tokenCounter",
      "outputs": [
        {
          "internalType": "uint256",
          "name": "",
          "type": "uint256"
        }
      ],
      "stateMutability": "view",
      "type": "function"
    },
    {
      "inputs": [
        {
          "internalType": "uint256",
          "name": "tokenId",
          "type": "uint256"
        }
      ],
      "name": "tokenURI",
      "outputs": [
        {
          "internalType": "string",
          "name": "",
          "type": "string"
        }
      ],
      "stateMutability": "view",
      "type": "function"
    },
    {
      "inputs": [
        {
          "internalType": "address",
          "name": "from",
          "type": "address"
        },
        {
          "internalType": "address",
          "name": "to",
          "type": "address"
        },
        {
          "internalType": "uint256",
          "name": "tokenId",
          "type": "uint256"
        }
      ],
      "name": "transferFrom",
      "outputs": [],
      "stateMutability": "nonpayable",
      "type": "function"
    },
    {
      "inputs": [
        {
          "internalType": "address",
          "name": "newOwner",
          "type": "address"
        }
      ],
      "name": "transferOwnership",
      "outputs": [],
      "stateMutability": "nonpayable",
      "type": "function"
    },
    {
      "inputs": [
        {
          "internalType": "address",
          "name": "",
          "type": "address"
        }
      ],
      "name": "whitelist",
      "outputs": [
        {
          "internalType": "bool",
          "name": "",
          "type": "bool"
        }
      ],
      "stateMutability": "view",
      "type": "function"
    }
  ],
  "bytecode": "0x6080604052662386f26fc100006008556005600a5534801561002057600080fd5b506040518060400160405280600a81526020017f546f6b656e54726f7665000000000000000000000000000000000000000000008152506040518060400160405280600381526020017f544e540000000000000000000000000000000000000000000000000000000000815250816000908161009c91906103f6565b5080600190816100ac91906103f6565b5050506100cb6100c06100d860201b60201c565b6100e060201b60201c565b60006007819055506104c8565b600033905090565b6000600660009054906101000a900473ffffffffffffffffffffffffffffffffffffffff16905081600660006101000a81548173ffffffffffffffffffffffffffffffffffffffff021916908373ffffffffffffffffffffffffffffffffffffffff1602179055508173ffffffffffffffffffffffffffffffffffffffff168173ffffffffffffffffffffffffffffffffffffffff167f8be0079c531659141344cd1fd0a4f28419497f9722a3daafe3b4186f6b6457e060405160405180910390a35050565b600081519050919050565b7f4e487b7100000000000000000000000000000000000000000000000000000000600052604160045260246000fd5b7f4e487b7100000000000000000000000000000000000000000000000000000000600052602260045260246000fd5b6000600282049050600182168061022757607f821691505b60208210810361023a576102396101e0565b5b50919050565b60008190508160005260206000209050919050565b60006020601f8301049050919050565b600082821b905092915050565b6000600883026102a27fffffffffffffffffffffffffffffffffffffffffffffffffffffffffffffffff82610265565b6102ac8683610265565b95508019841693508086168417925050509392505050565b6000819050919050565b6000819050919050565b60006102f36102ee6102e9846102c4565b6102ce565b6102c4565b9050919050565b6000819050919050565b61030d836102d8565b610321610319826102fa565b848454610272565b825550505050565b600090565b610336610329565b610341818484610304565b505050565b5b818110156103655761035a60008261032e565b600181019050610347565b5050565b601f8211156103aa5761037b81610240565b61038484610255565b81016020851015610393578190505b6103a761039f85610255565b830182610346565b50505b505050565b600082821c905092915050565b60006103cd600019846008026103af565b1980831691505092915050565b60006103e683836103bc565b9150826002028217905092915050565b6103ff826101a6565b67ffffffffffffffff811115610418576104176101b1565b5b610422825461020f565b61042d828285610369565b600060209050601f831160018114610460576000841561044e578287015190505b61045885826103da565b8655506104c0565b601f19841661046e86610240565b60005b8281101561049657848901518255600182019150602085019450602081019050610471565b868310156104b357848901516104af601f8916826103bc565b8355505b6001600288020188555050505b505050505050565b6134bd806104d76000396000f3fe6080604052600436106101815760003560e01c80638a71bb2d116100d1578063b88d4fde1161008a578063e43252d711610064578063e43252d714610595578063e985e9c5146105be578063eacabe14146105fb578063f2fde38b1461062b57610181565b8063b88d4fde14610504578063c87b56dd1461052d578063d082e3811461056a57610181565b80638a71bb2d146103f45780638c7ea24b1461041f5780638da5cb5b1461044857806395d89b41146104735780639b19251a1461049e578063a22cb465146104db57610181565b806342842e0e1161013e5780635a64ad95116101185780635a64ad95146103385780636352211e1461036357806370a08231146103a0578063715018a6146103dd57610181565b806342842e0e146102bb57806342966c68146102e45780634c00de821461030d57610181565b806301ffc9a71461018657806306fdde03146101c3578063081812fc146101ee578063095ea7b31461022b57806323b872dd146102545780632a55205a1461027d575b600080fd5b34801561019257600080fd5b506101ad60048036038101906101a8919061201f565b610654565b6040516101ba9190612067565b60405180910390f35b3480156101cf57600080fd5b506101d8610736565b6040516101e59190612112565b60405180910390f35b3480156101fa57600080fd5b506102156004803603810190610210919061216a565b6107c8565b60405161022291906121d8565b60405180910390f35b34801561023757600080fd5b50610252600480360381019061024d919061221f565b61080e565b005b34801561026057600080fd5b5061027b6004803603810190610276919061225f565b610925565b005b34801561028957600080fd5b506102a4600480360381019061029f91906122b2565b610985565b6040516102b2929190612301565b60405180910390f35b3480156102c757600080fd5b506102e260048036038101906102dd919061225f565b6109d6565b005b3480156102f057600080fd5b5061030b6004803603810190610306919061216a565b6109f6565b005b34801561031957600080fd5b50610322610a78565b60405161032f91906121d8565b60405180910390f35b34801561034457600080fd5b5061034d610a9e565b60405161035a919061232a565b60405180910390f35b34801561036f57600080fd5b5061038a6004803603810190610385919061216a565b610aa4565b60405161039791906121d8565b60405180910390f35b3480156103ac57600080fd5b506103c760048036038101906103c29190612345565b610b2a565b6040516103d4919061232a565b60405180910390f35b3480156103e957600080fd5b506103f2610be1565b005b34801561040057600080fd5b50610409610bf5565b604051610416919061232a565b60405180910390f35b34801561042b57600080fd5b506104466004803603810190610441919061221f565b610bfb565b005b34801561045457600080fd5b5061045d610c93565b60405161046a91906121d8565b60405180910390f35b34801561047f57600080fd5b50610488610cbd565b6040516104959190612112565b60405180910390f35b3480156104aa57600080fd5b506104c560048036038101906104c09190612345565b610d4f565b6040516104d29190612067565b60405180910390f35b3480156104e757600080fd5b5061050260048036038101906104fd919061239e565b610d6f565b005b34801561051057600080fd5b5061052b60048036038101906105269190612513565b610d85565b005b34801561053957600080fd5b50610554600480360381019061054f919061216a565b610de7565b6040516105619190612112565b60405180910390f35b34801561057657600080fd5b5061057f610ed4565b60405161058c919061232a565b60405180910390f35b3480156105a157600080fd5b506105bc60048036038101906105b79190612345565b610eda565b005b3480156105ca57600080fd5b506105e560048036038101906105e09190612596565b610f3d565b6040516105f29190612067565b60405180910390f35b61061560048036038101906106109190612677565b610fd1565b604051610622919061232a565b60405180910390f35b34801561063757600080fd5b50610652600480360381019061064d9190612345565b6110e3565b005b60007f80ac58cd000000000000000000000000000000000000000000000000000000007bffffffffffffffffffffffffffffffffffffffffffffffffffffffff1916827bffffffffffffffffffffffffffffffffffffffffffffffffffffffff1916148061071f57507f5b5e139f000000000000000000000000000000000000000000000000000000007bffffffffffffffffffffffffffffffffffffffffffffffffffffffff1916827bffffffffffffffffffffffffffffffffffffffffffffffffffffffff1916145b8061072f575061072e82611166565b5b9050919050565b60606000805461074590612702565b80601f016020809104026020016040519081016040528092919081815260200182805461077190612702565b80156107be5780601f10610793576101008083540402835291602001916107be565b820191906000526020600020905b8154815290600101906020018083116107a157829003601f168201915b5050505050905090565b60006107d3826111d0565b6004600083815260200190815260200160002060009054906101000a900473ffffffffffffffffffffffffffffffffffffffff169050919050565b600061081982610aa4565b90508073ffffffffffffffffffffffffffffffffffffffff168373ffffffffffffffffffffffffffffffffffffffff1603610889576040517f08c379a0000000000000000000000000000000000000000000000000000000008152600401610880906127a5565b60405180910390fd5b8073ffffffffffffffffffffffffffffffffffffffff166108a861121b565b73ffffffffffffffffffffffffffffffffffffffff1614806108d757506108d6816108d161121b565b610f3d565b5b610916576040517f08c379a000000000000000000000000000000000000000000000000000000000815260040161090d90612837565b60405180910390fd5b6109208383611223565b505050565b61093661093061121b565b826112dc565b610975576040517f08c379a000000000000000000000000000000000000000000000000000000000815260040161096c906128c9565b60405180910390fd5b610980838383611371565b505050565b60008060006064600a548561099a9190612918565b6109a49190612989565b9050600960009054906101000a900473ffffffffffffffffffffffffffffffffffffffff168192509250509250929050565b6109f183838360405180602001604052806000815250610d85565b505050565b3373ffffffffffffffffffffffffffffffffffffffff16610a1682610aa4565b73ffffffffffffffffffffffffffffffffffffffff1614610a6c576040517f08c379a0000000000000000000000000000000000000000000000000000000008152600401610a6390612a06565b60405180910390fd5b610a758161166a565b50565b600960009054906101000a900473ffffffffffffffffffffffffffffffffffffffff1681565b60085481565b600080610ab0836117b8565b9050600073ffffffffffffffffffffffffffffffffffffffff168173ffffffffffffffffffffffffffffffffffffffff1603610b21576040517f08c379a0000000000000000000000000000000000000000000000000000000008152600401610b1890612a72565b60405180910390fd5b80915050919050565b60008073ffffffffffffffffffffffffffffffffffffffff168273ffffffffffffffffffffffffffffffffffffffff1603610b9a576040517f08c379a0000000000000000000000000000000000000000000000000000000008152600401610b9190612b04565b60405180910390fd5b600360008373ffffffffffffffffffffffffffffffffffffffff1673ffffffffffffffffffffffffffffffffffffffff168152602001908152602001600020549050919050565b610be96117f5565b610bf36000611873565b565b600a5481565b610c036117f5565b6032811115610c47576040517f08c379a0000000000000000000000000000000000000000000000000000000008152600401610c3e90612b70565b60405180910390fd5b81600960006101000a81548173ffffffffffffffffffffffffffffffffffffffff021916908373ffffffffffffffffffffffffffffffffffffffff16021790555080600a819055505050565b6000600660009054906101000a900473ffffffffffffffffffffffffffffffffffffffff16905090565b606060018054610ccc90612702565b80601f0160208091040260200160405190810160405280929190818152602001828054610cf890612702565b8015610d455780601f10610d1a57610100808354040283529160200191610d45565b820191906000526020600020905b815481529060010190602001808311610d2857829003601f168201915b5050505050905090565b600c6020528060005260406000206000915054906101000a900460ff1681565b610d81610d7a61121b565b8383611939565b5050565b610d96610d9061121b565b836112dc565b610dd5576040517f08c379a0000000000000000000000000000000000000000000000000000000008152600401610dcc906128c9565b60405180910390fd5b610de184848484611aa5565b50505050565b6060610df282611b01565b610e31576040517f08c379a0000000000000000000000000000000000000000000000000000000008152600401610e2890612c02565b60405180910390fd5b600b60008381526020019081526020016000208054610e4f90612702565b80601f0160208091040260200160405190810160405280929190818152602001828054610e7b90612702565b8015610ec85780601f10610e9d57610100808354040283529160200191610ec8565b820191906000526020600020905b815481529060010190602001808311610eab57829003601f168201915b50505050509050919050565b60075481565b610ee26117f5565b6001600c60008373ffffffffffffffffffffffffffffffffffffffff1673ffffffffffffffffffffffffffffffffffffffff16815260200190815260200160002060006101000a81548160ff02191690831515021790555050565b6000600560008473ffffffffffffffffffffffffffffffffffffffff1673ffffffffffffffffffffffffffffffffffffffff16815260200190815260200160002060008373ffffffffffffffffffffffffffffffffffffffff1673ffffffffffffffffffffffffffffffffffffffff16815260200190815260200160002060009054906101000a900460ff16905092915050565b6000600854341015611018576040517f08c379a000000000000000000000000000000000000000000000000000000000815260040161100f90612c6e565b60405180910390fd5b600c60003373ffffffffffffffffffffffffffffffffffffffff1673ffffffffffffffffffffffffffffffffffffffff16815260200190815260200160002060009054906101000a900460ff166110a4576040517f08c379a000000000000000000000000000000000000000000000000000000000815260040161109b90612cda565b60405180910390fd5b600060075490506110b58482611b42565b6110bf8184611b60565b6001600760008282546110d29190612cfa565b925050819055508091505092915050565b6110eb6117f5565b600073ffffffffffffffffffffffffffffffffffffffff168173ffffffffffffffffffffffffffffffffffffffff160361115a576040517f08c379a000000000000000000000000000000000000000000000000000000000815260040161115190612da0565b60405180910390fd5b61116381611873565b50565b60007f01ffc9a7000000000000000000000000000000000000000000000000000000007bffffffffffffffffffffffffffffffffffffffffffffffffffffffff1916827bffffffffffffffffffffffffffffffffffffffffffffffffffffffff1916149050919050565b6111d981611b01565b611218576040517f08c379a000000000000000000000000000000000000000000000000000000000815260040161120f90612a72565b60405180910390fd5b50565b600033905090565b816004600083815260200190815260200160002060006101000a81548173ffffffffffffffffffffffffffffffffffffffff021916908373ffffffffffffffffffffffffffffffffffffffff160217905550808273ffffffffffffffffffffffffffffffffffffffff1661129683610aa4565b73ffffffffffffffffffffffffffffffffffffffff167f8c5be1e5ebec7d5bd14f71427d1e84f3dd0314c0f7b2291e5b200ac8c7c3b92560405160405180910390a45050565b6000806112e883610aa4565b90508073ffffffffffffffffffffffffffffffffffffffff168473ffffffffffffffffffffffffffffffffffffffff16148061132a57506113298185610f3d565b5b8061136857508373ffffffffffffffffffffffffffffffffffffffff16611350846107c8565b73ffffffffffffffffffffffffffffffffffffffff16145b91505092915050565b8273ffffffffffffffffffffffffffffffffffffffff1661139182610aa4565b73ffffffffffffffffffffffffffffffffffffffff16146113e7576040517f08c379a00000000000000000000000000000000000000000000000000000000081526004016113de90612e32565b60405180910390fd5b600073ffffffffffffffffffffffffffffffffffffffff168273ffffffffffffffffffffffffffffffffffffffff1603611456576040517f08c379a000000000000000000000000000000000000000000000000000000000815260040161144d90612ec4565b60405180910390fd5b6114638383836001611b85565b8273ffffffffffffffffffffffffffffffffffffffff1661148382610aa4565b73ffffffffffffffffffffffffffffffffffffffff16146114d9576040517f08c379a00000000000000000000000000000000000000000000000000000000081526004016114d090612e32565b60405180910390fd5b6004600082815260200190815260200160002060006101000a81549073ffffffffffffffffffffffffffffffffffffffff02191690556001600360008573ffffffffffffffffffffffffffffffffffffffff1673ffffffffffffffffffffffffffffffffffffffff168152602001908152602001600020600082825403925050819055506001600360008473ffffffffffffffffffffffffffffffffffffffff1673ffffffffffffffffffffffffffffffffffffffff16815260200190815260200160002060008282540192505081905550816002600083815260200190815260200160002060006101000a81548173ffffffffffffffffffffffffffffffffffffffff021916908373ffffffffffffffffffffffffffffffffffffffff160217905550808273ffffffffffffffffffffffffffffffffffffffff168473ffffffffffffffffffffffffffffffffffffffff167fddf252ad1be2c89b69c2b068fc378daa952ba7f163c4a11628f55a4df523b3ef60405160405180910390a46116658383836001611b8b565b505050565b600061167582610aa4565b9050611685816000846001611b85565b61168e82610aa4565b90506004600083815260200190815260200160002060006101000a81549073ffffffffffffffffffffffffffffffffffffffff02191690556001600360008373ffffffffffffffffffffffffffffffffffffffff1673ffffffffffffffffffffffffffffffffffffffff168152602001908152602001600020600082825403925050819055506002600083815260200190815260200160002060006101000a81549073ffffffffffffffffffffffffffffffffffffffff021916905581600073ffffffffffffffffffffffffffffffffffffffff168273ffffffffffffffffffffffffffffffffffffffff167fddf252ad1be2c89b69c2b068fc378daa952ba7f163c4a11628f55a4df523b3ef60405160405180910390a46117b4816000846001611b8b565b5050565b60006002600083815260200190815260200160002060009054906101000a900473ffffffffffffffffffffffffffffffffffffffff169050919050565b6117fd61121b565b73ffffffffffffffffffffffffffffffffffffffff1661181b610c93565b73ffffffffffffffffffffffffffffffffffffffff1614611871576040517f08c379a000000000000000000000000000000000000000000000000000000000815260040161186890612f30565b60405180910390fd5b565b6000600660009054906101000a900473ffffffffffffffffffffffffffffffffffffffff16905081600660006101000a81548173ffffffffffffffffffffffffffffffffffffffff021916908373ffffffffffffffffffffffffffffffffffffffff1602179055508173ffffffffffffffffffffffffffffffffffffffff168173ffffffffffffffffffffffffffffffffffffffff167f8be0079c531659141344cd1fd0a4f28419497f9722a3daafe3b4186f6b6457e060405160405180910390a35050565b8173ffffffffffffffffffffffffffffffffffffffff168373ffffffffffffffffffffffffffffffffffffffff16036119a7576040517f08c379a000000000000000000000000000000000000000000000000000000000815260040161199e90612f9c565b60405180910390fd5b80600560008573ffffffffffffffffffffffffffffffffffffffff1673ffffffffffffffffffffffffffffffffffffffff16815260200190815260200160002060008473ffffffffffffffffffffffffffffffffffffffff1673ffffffffffffffffffffffffffffffffffffffff16815260200190815260200160002060006101000a81548160ff0219169083151502179055508173ffffffffffffffffffffffffffffffffffffffff168373ffffffffffffffffffffffffffffffffffffffff167f17307eab39ab6107e8899845ad3d59bd9653f200f220920489ca2b5937696c3183604051611a989190612067565b60405180910390a3505050565b611ab0848484611371565b611abc84848484611b91565b611afb576040517f08c379a0000000000000000000000000000000000000000000000000000000008152600401611af29061302e565b60405180910390fd5b50505050565b60008073ffffffffffffffffffffffffffffffffffffffff16611b23836117b8565b73ffffffffffffffffffffffffffffffffffffffff1614159050919050565b611b5c828260405180602001604052806000815250611d18565b5050565b80600b60008481526020019081526020016000209081611b8091906131fa565b505050565b50505050565b50505050565b6000611bb28473ffffffffffffffffffffffffffffffffffffffff16611d73565b15611d0b578373ffffffffffffffffffffffffffffffffffffffff1663150b7a02611bdb61121b565b8786866040518563ffffffff1660e01b8152600401611bfd9493929190613321565b6020604051808303816000875af1925050508015611c3957506040513d601f19601f82011682018060405250810190611c369190613382565b60015b611cbb573d8060008114611c69576040519150601f19603f3d011682016040523d82523d6000602084013e611c6e565b606091505b506000815103611cb3576040517f08c379a0000000000000000000000000000000000000000000000000000000008152600401611caa9061302e565b60405180910390fd5b805181602001fd5b63150b7a0260e01b7bffffffffffffffffffffffffffffffffffffffffffffffffffffffff1916817bffffffffffffffffffffffffffffffffffffffffffffffffffffffff191614915050611d10565b600190505b949350505050565b611d228383611d96565b611d2f6000848484611b91565b611d6e576040517f08c379a0000000000000000000000000000000000000000000000000000000008152600401611d659061302e565b60405180910390fd5b505050565b6000808273ffffffffffffffffffffffffffffffffffffffff163b119050919050565b600073ffffffffffffffffffffffffffffffffffffffff168273ffffffffffffffffffffffffffffffffffffffff1603611e05576040517f08c379a0000000000000000000000000000000000000000000000000000000008152600401611dfc906133fb565b60405180910390fd5b611e0e81611b01565b15611e4e576040517f08c379a0000000000000000000000000000000000000000000000000000000008152600401611e4590613467565b60405180910390fd5b611e5c600083836001611b85565b611e6581611b01565b15611ea5576040517f08c379a0000000000000000000000000000000000000000000000000000000008152600401611e9c90613467565b60405180910390fd5b6001600360008473ffffffffffffffffffffffffffffffffffffffff1673ffffffffffffffffffffffffffffffffffffffff16815260200190815260200160002060008282540192505081905550816002600083815260200190815260200160002060006101000a81548173ffffffffffffffffffffffffffffffffffffffff021916908373ffffffffffffffffffffffffffffffffffffffff160217905550808273ffffffffffffffffffffffffffffffffffffffff16600073ffffffffffffffffffffffffffffffffffffffff167fddf252ad1be2c89b69c2b068fc378daa952ba7f163c4a11628f55a4df523b3ef60405160405180910390a4611faf600083836001611b8b565b5050565b6000604051905090565b600080fd5b600080fd5b60007fffffffff0000000000000000000000000000000000000000000000000000000082169050919050565b611ffc81611fc7565b811461200757600080fd5b50565b60008135905061201981611ff3565b92915050565b60006020828403121561203557612034611fbd565b5b60006120438482850161200a565b91505092915050565b60008115159050919050565b6120618161204c565b82525050565b600060208201905061207c6000830184612058565b92915050565b600081519050919050565b600082825260208201905092915050565b60005b838110156120bc5780820151818401526020810190506120a1565b60008484015250505050565b6000601f19601f8301169050919050565b60006120e482612082565b6120ee818561208d565b93506120fe81856020860161209e565b612107816120c8565b840191505092915050565b6000602082019050818103600083015261212c81846120d9565b905092915050565b6000819050919050565b61214781612134565b811461215257600080fd5b50565b6000813590506121648161213e565b92915050565b6000602082840312156121805761217f611fbd565b5b600061218e84828501612155565b91505092915050565b600073ffffffffffffffffffffffffffffffffffffffff82169050919050565b60006121c282612197565b9050919050565b6121d2816121b7565b82525050565b60006020820190506121ed60008301846121c9565b92915050565b6121fc816121b7565b811461220757600080fd5b50565b600081359050612219816121f3565b92915050565b6000806040838503121561223657612235611fbd565b5b60006122448582860161220a565b925050602061225585828601612155565b9150509250929050565b60008060006060848603121561227857612277611fbd565b5b60006122868682870161220a565b93505060206122978682870161220a565b92505060406122a886828701612155565b9150509250925092565b600080604083850312156122c9576122c8611fbd565b5b60006122d785828601612155565b92505060206122e885828601612155565b9150509250929050565b6122fb81612134565b82525050565b600060408201905061231660008301856121c9565b61232360208301846122f2565b9392505050565b600060208201905061233f60008301846122f2565b92915050565b60006020828403121561235b5761235a611fbd565b5b60006123698482850161220a565b91505092915050565b61237b8161204c565b811461238657600080fd5b50565b60008135905061239881612372565b92915050565b600080604083850312156123b5576123b4611fbd565b5b60006123c38582860161220a565b92505060206123d485828601612389565b9150509250929050565b600080fd5b600080fd5b7f4e487b7100000000000000000000000000000000000000000000000000000000600052604160045260246000fd5b612420826120c8565b810181811067ffffffffffffffff8211171561243f5761243e6123e8565b5b80604052505050565b6000612452611fb3565b905061245e8282612417565b919050565b600067ffffffffffffffff82111561247e5761247d6123e8565b5b612487826120c8565b9050602081019050919050565b82818337600083830152505050565b60006124b66124b184612463565b612448565b9050828152602081018484840111156124d2576124d16123e3565b5b6124dd848285612494565b509392505050565b600082601f8301126124fa576124f96123de565b5b813561250a8482602086016124a3565b91505092915050565b6000806000806080858703121561252d5761252c611fbd565b5b600061253b8782880161220a565b945050602061254c8782880161220a565b935050604061255d87828801612155565b925050606085013567ffffffffffffffff81111561257e5761257d611fc2565b5b61258a878288016124e5565b91505092959194509250565b600080604083850312156125ad576125ac611fbd565b5b60006125bb8582860161220a565b92505060206125cc8582860161220a565b9150509250929050565b600067ffffffffffffffff8211156125f1576125f06123e8565b5b6125fa826120c8565b9050602081019050919050565b600061261a612615846125d6565b612448565b905082815260208101848484011115612636576126356123e3565b5b612641848285612494565b509392505050565b600082601f83011261265e5761265d6123de565b5b813561266e848260208601612607565b91505092915050565b6000806040838503121561268e5761268d611fbd565b5b600061269c8582860161220a565b925050602083013567ffffffffffffffff8111156126bd576126bc611fc2565b5b6126c985828601612649565b9150509250929050565b7f4e487b7100000000000000000000000000000000000000000000000000000000600052602260045260246000fd5b6000600282049050600182168061271a57607f821691505b60208210810361272d5761272c6126d3565b5b50919050565b7f4552433732313a20617070726f76616c20746f2063757272656e74206f776e6560008201527f7200000000000000000000000000000000000000000000000000000000000000602082015250565b600061278f60218361208d565b915061279a82612733565b604082019050919050565b600060208201905081810360008301526127be81612782565b9050919050565b7f4552433732313a20617070726f76652063616c6c6572206973206e6f7420746f60008201527f6b656e206f776e6572206f7220617070726f76656420666f7220616c6c000000602082015250565b6000612821603d8361208d565b915061282c826127c5565b604082019050919050565b6000602082019050818103600083015261285081612814565b9050919050565b7f4552433732313a2063616c6c6572206973206e6f7420746f6b656e206f776e6560008201527f72206f7220617070726f76656400000000000000000000000000000000000000602082015250565b60006128b3602d8361208d565b91506128be82612857565b604082019050919050565b600060208201905081810360008301526128e2816128a6565b9050919050565b7f4e487b7100000000000000000000000000000000000000000000000000000000600052601160045260246000fd5b600061292382612134565b915061292e83612134565b925082820261293c81612134565b91508282048414831517612953576129526128e9565b5b5092915050565b7f4e487b7100000000000000000000000000000000000000000000000000000000600052601260045260246000fd5b600061299482612134565b915061299f83612134565b9250826129af576129ae61295a565b5b828204905092915050565b7f4f6e6c7920746865206f776e65722063616e206275726e000000000000000000600082015250565b60006129f060178361208d565b91506129fb826129ba565b602082019050919050565b60006020820190508181036000830152612a1f816129e3565b9050919050565b7f4552433732313a20696e76616c696420746f6b656e2049440000000000000000600082015250565b6000612a5c60188361208d565b9150612a6782612a26565b602082019050919050565b60006020820190508181036000830152612a8b81612a4f565b9050919050565b7f4552433732313a2061646472657373207a65726f206973206e6f74206120766160008201527f6c6964206f776e65720000000000000000000000000000000000000000000000602082015250565b6000612aee60298361208d565b9150612af982612a92565b604082019050919050565b60006020820190508181036000830152612b1d81612ae1565b9050919050565b7f50657263656e7461676520746f6f206869676800000000000000000000000000600082015250565b6000612b5a60138361208d565b9150612b6582612b24565b602082019050919050565b60006020820190508181036000830152612b8981612b4d565b9050919050565b7f4552433732314d657461646174613a2055524920717565727920666f72206e6f60008201527f6e2d6578697374656e7420746f6b656e00000000000000000000000000000000602082015250565b6000612bec60308361208d565b9150612bf782612b90565b604082019050919050565b60006020820190508181036000830152612c1b81612bdf565b9050919050565b7f496e73756666696369656e74206d696e74696e67206665650000000000000000600082015250565b6000612c5860188361208d565b9150612c6382612c22565b602082019050919050565b60006020820190508181036000830152612c8781612c4b565b9050919050565b7f4e6f742077686974656c69737465640000000000000000000000000000000000600082015250565b6000612cc4600f8361208d565b9150612ccf82612c8e565b602082019050919050565b60006020820190508181036000830152612cf381612cb7565b9050919050565b6000612d0582612134565b9150612d1083612134565b9250828201905080821115612d2857612d276128e9565b5b92915050565b7f4f776e61626c653a206e6577206f776e657220697320746865207a65726f206160008201527f6464726573730000000000000000000000000000000000000000000000000000602082015250565b6000612d8a60268361208d565b9150612d9582612d2e565b604082019050919050565b60006020820190508181036000830152612db981612d7d565b9050919050565b7f4552433732313a207472616e736665722066726f6d20696e636f72726563742060008201527f6f776e6572000000000000000000000000000000000000000000000000000000602082015250565b6000612e1c60258361208d565b9150612e2782612dc0565b604082019050919050565b60006020820190508181036000830152612e4b81612e0f565b9050919050565b7f4552433732313a207472616e7366657220746f20746865207a65726f2061646460008201527f7265737300000000000000000000000000000000000000000000000000000000602082015250565b6000612eae60248361208d565b9150612eb982612e52565b604082019050919050565b60006020820190508181036000830152612edd81612ea1565b9050919050565b7f4f776e61626c653a2063616c6c6572206973206e6f7420746865206f776e6572600082015250565b6000612f1a60208361208d565b9150612f2582612ee4565b602082019050919050565b60006020820190508181036000830152612f4981612f0d565b9050919050565b7f4552433732313a20617070726f766520746f2063616c6c657200000000000000600082015250565b6000612f8660198361208d565b9150612f9182612f50565b602082019050919050565b60006020820190508181036000830152612fb581612f79565b9050919050565b7f4552433732313a207472616e7366657220746f206e6f6e20455243373231526560008201527f63656976657220696d706c656d656e7465720000000000000000000000000000602082015250565b600061301860328361208d565b915061302382612fbc565b604082019050919050565b600060208201905081810360008301526130478161300b565b9050919050565b60008190508160005260206000209050919050565b60006020601f8301049050919050565b600082821b905092915050565b6000600883026130b07fffffffffffffffffffffffffffffffffffffffffffffffffffffffffffffffff82613073565b6130ba8683613073565b95508019841693508086168417925050509392505050565b6000819050919050565b60006130f76130f26130ed84612134565b6130d2565b612134565b9050919050565b6000819050919050565b613111836130dc565b61312561311d826130fe565b848454613080565b825550505050565b600090565b61313a61312d565b613145818484613108565b505050565b5b818110156131695761315e600082613132565b60018101905061314b565b5050565b601f8211156131ae5761317f8161304e565b61318884613063565b81016020851015613197578190505b6131ab6131a385613063565b83018261314a565b50505b505050565b600082821c905092915050565b60006131d1600019846008026131b3565b1980831691505092915050565b60006131ea83836131c0565b9150826002028217905092915050565b61320382612082565b67ffffffffffffffff81111561321c5761321b6123e8565b5b6132268254612702565b61323182828561316d565b600060209050601f8311600181146132645760008415613252578287015190505b61325c85826131de565b8655506132c4565b601f1984166132728661304e565b60005b8281101561329a57848901518255600182019150602085019450602081019050613275565b868310156132b757848901516132b3601f8916826131c0565b8355505b6001600288020188555050505b505050505050565b600081519050919050565b600082825260208201905092915050565b60006132f3826132cc565b6132fd81856132d7565b935061330d81856020860161209e565b613316816120c8565b840191505092915050565b600060808201905061333660008301876121c9565b61334360208301866121c9565b61335060408301856122f2565b818103606083015261336281846132e8565b905095945050505050565b60008151905061337c81611ff3565b92915050565b60006020828403121561339857613397611fbd565b5b60006133a68482850161336d565b91505092915050565b7f4552433732313a206d696e7420746f20746865207a65726f2061646472657373600082015250565b60006133e560208361208d565b91506133f0826133af565b602082019050919050565b60006020820190508181036000830152613414816133d8565b9050919050565b7f4552433732313a20746f6b656e20616c7265616479206d696e74656400000000600082015250565b6000613451601c8361208d565b915061345c8261341b565b602082019050919050565b6000602082019050818103600083015261348081613444565b905091905056fea26469706673582212200eb93fc4db19ffff593fda4b244432afc4aaf57c175ab6664ffd78030d96530964736f6c634300081b0033",
  "linkReferences": {},
  "deployedLinkReferences": {}
}